:1000000014C1000042C1000040C100003EC1000018
:100010003CC100003AC1000038C1000036C10000F8
:1000200034C1000032C1000030C100002EC1000008
:100030002CC100002AC1000028C1000026C1000018
:1000400024C1000022C1000020C100001EC1000028
:100050001CC100001AC1000018C10000C7C7000081
:1000600014C10000C4C2000099C200000EC100000B
:100070000CC100000AC1000008C1000006C1000058
:1000800004C1000002C1000000C10000FEC0000069
:10009000FCC00000FAC00000F8C0000037C3000038
:1000A000F4C00000F2C00000F0C00000EEC000008C
:1000B000ECC00000EAC00000E8C00000E6C000009C
:1000C000E4C00000E2C00000E0C00000DEC00000AC
:1000D000DCC00000DAC00000D8C00000D6C00000BC
:1000E000D4C00000D104D404C304C704CD040B055C
:1000F000D804DC04E204E604EA04F004F404F8049E
:100100000B05FE040205060500002100240027005F
:100110002A002D0030003300010100000401070116
:100120000A0100002200250028002B002E003100CB
:10013000340002010000050108010B01000020004D
:100140002300260029002C002F00320000010000AF
:10015000030106010901050505050705080808084A
:10016000020202020A0A080804040404010101014F
:10017000010101010303030303030303040707074A
:100180000C0C0C0C0C0C0C0C0202020206060606EF
:10019000060606060B0B0B0B0B0B0B0B01021020BC
:1001A00020080810204010204080020102010804AD
:1001B0000201010204081020408080402010080441
:1001C000020180040201804020100804020108049A
:1001D00002010102040810204080010204081020DE
:1001E000408000000A0B02090C0D0E0807030401F1
:1001F00000000000000000000000000000000000FF
:1002000000000000000000000000000000001211CB
:1002100010000000000000000000000000000000CE
:100220000000000000000000620A11241FBECFEF92
:10023000D1E2DEBFCDBF00E00CBF12E0A0E0B2E033
:10024000E6E1FAE100E00BBF02C007900D92A43A8C
:10025000B107D9F723E0A4EAB2E001C01D92A23FA2
:10026000B207E1F711E0C5E1D1E000E006C0219757
:100270000109802FFE010E94E30AC431D10780E00A
:100280000807A9F7FDD60C94090DBACECF92DF92DC
:10029000EF92FF920F931F93CF93DF936C017A013C
:1002A0008B01C0E0D0E0CE15DF0589F0D8016D915B
:1002B0008D01D601ED91FC910190F081E02DC601F8
:1002C0001995892B11F47E0102C02196ECCFC7014C
:1002D000DF91CF911F910F91FF90EF90DF90CF9022
:1002E0000895FC01918D828D981761F0828DDF0158
:1002F000A80FB11D5D968C91928D9F5F9F73928F19
:1003000090E008958FEF9FEF0895FC01918D828D0D
:10031000981731F0828DE80FF11D858D90E00895DA
:100320008FEF9FEF0895FC01918D228D892F90E032
:10033000805C9F4F821B91098F739927089585E3F5
:1003400093E0F1DF21E0892B09F420E0822F08956A
:10035000FC01848DDF01A80FB11DA35ABF4F2C9162
:10036000848D90E001968F739927848FA689B78931
:100370002C93A089B1898C9180648C93938D848D0A
:10038000981306C00288F389E02D80818F7D8083D9
:100390000895EF92FF920F931F93CF93DF93EC0199
:1003A00081E0888F9B8D8C8D981305C0E889F98931
:1003B000808185FD23C0F62E0B8D10E00F5F1F4F4F
:1003C0000F731127E02E8C8DE8120BC00FB607FCBF
:1003D000FACFE889F989808185FFF5CFCE01B8DFB2
:1003E000F2CF8B8DFE01E80FF11DE35AFF4FF08233
:1003F0000B8FEA89FB898081806207C0EE89FF89C3
:100400006083E889F98980818064808381E090E05D
:10041000DF91CF911F910F91FF90EF900895CF93AF
:10042000DF93EC01888D8823C1F0EA89FB89808104
:1004300085FD05C0A889B9898C9186FD0EC00FB6CF
:1004400007FCF5CF808185FFF2CFA889B9898C910F
:1004500085FFEDCFCE017CDFE8CFDF91CF9108950E
:1004600080E090E0892B19F06ADF811125C080E0DF
:1004700090E0892B41F080E090E0892B21F00E94F0
:10048000000081111CC080E090E0892B41F080E0E9
:1004900090E0892B21F00E940000811113C080E0C0
:1004A00090E0892BA1F080E090E0892B81F00E9400
:1004B000000081110AC008950E940000D8CF0E9458
:1004C0000000E1CF0E940000EACF0C9400000895E4
:1004D00008958FEF9FEF08958FEF9FEF089580911C
:1004E000120390E0919581959109089585ED80938F
:1004F000BC008091BC0084FDFCCF1092EC020895FA
:100500004091C602262F30E0240F311D21323105E3
:10051000DCF42091EC022430C9F4FC0180E090E08E
:10052000861758F43091C6022191DC01AC55BD4FBD
:10053000A30FB11D2C930196F3CF8091C602680FD3
:100540006093C60280E0089581E0089582E00895F6
:10055000CF93DF931F921F92CDB7DEB7CB01642FED
:1005600049835A83CDDF4981842F5A81952F0F907B
:100570000F90DF91CF910895CF93DF931F92CDB766
:10058000DEB7698361E0CE010196BADF81E090E0D9
:100590000F90DF91CF9108950E94050D1F920F9249
:1005A0000FB60F9211240BB60F922F933F934F93D8
:1005B0005F936F937F938F939F93AF93BF93EF93CB
:1005C000FF9385E393E0C4DEFF91EF91BF91AF917C
:1005D0009F918F917F916F915F914F913F912F915B
:1005E0000F900BBE0F900FBE0F901F9018951F928B
:1005F0000F920FB60F9211240BB60F922F938F9379
:100600009F93EF93FF93E0914503F0914603808120
:10061000E0914B03F0914C0382FD12C090818091D8
:100620004E038F5F8F7320914F03821751F0E0913B
:100630004E03F0E0EB5CFC4F958F80934E0301C0BE
:100640008081FF91EF919F918F912F910F900BBE21
:100650000F900FBE0F901F901895DF92EF92FF92B0
:100660000F931F93CF93DF938C01D42EC0E0D0E083
:10067000E62EF12CB7010C2E02C0759567950A94F1
:10068000E2F76170F801818135D361E0F801808182
:1006900031D360E0F801DD2031F0C730D10519F425
:1006A000818130D402C0808125D32196C830D10504
:1006B00009F7DF91CF911F910F91FF90EF90DF909D
:1006C000089560E0FC01828115D38BE090E00197F2
:1006D000F1F70895CF93DF93EC0160E08A810AD3AC
:1006E00061E08A810FD460E0888104D361E0888171
:1006F00009D461E0898106D461E08A81FBD28BE074
:1007000090E00197F1F7DF91CF9108951F920F923A
:100710000FB60F9211240BB60F922F933F934F9366
:100720005F936F937F938F939F93AF93BF93EF9359
:10073000FF938091B900887F803609F49CC068F5EA
:10074000883209F45BC090F4803109F454C038F465
:10075000882309F4F6C0883009F44DC0F5C088310B
:1007600009F44CC0803209F45DC0EEC0803409F455
:1007700068C048F4803309F455C0883309F0E4C0F8
:100780008093EB02D8C0803509F44FC0883509F456
:100790005DC0883409F0D8C0D6C0883909F4C7C014
:1007A000A8F4883709F467C038F4883609F463C0C0
:1007B000803709F460C0C8C0883809F4B8C08039EF
:1007C00009F45FC0803809F0BFC05BC0803B09F40A
:1007D00086C038F4803A09F466C0883A09F47FC0CC
:1007E000B3C0803C09F4A7C0883C09F4A4C0883B8E
:1007F00009F48AC0A9C08091110310C09091100320
:1008000080910F03981770F5E091100381E08E0F2F
:1008100080931003F0E0E151FD4F80818093BB0095
:1008200085EC86C08093EB028EC0E091100381E0DE
:100830008E0F809310038091BB00F0E0E151FD4FDB
:1008400080839091100380910F036EC0E09110039C
:1008500081E08E0F809310038091BB00F0E0E151A6
:10086000FD4F80838091EE0281116DC081E0809305
:10087000ED0284EA61C083E08093EC021092EA0208
:10088000CFCF8091EA02803208F051C0E091EA02B5
:1008900081E08E0F8093EA028091BB00F0E0E65386
:1008A000FD4F8083BDCF85EC8093BC001092EC029D
:1008B0008091EA02803230F4E091EA02F0E0E653FF
:1008C000FD4F10826091EA0270E0E091C802F09161
:1008D000C9028AEC92E019951092EA0235C084E0D0
:1008E0008093EC021092C7021092C602E091C402FB
:1008F000F091C50219958091C602811105C081E071
:100900008093C6021092A402E091C70281E08E0F8C
:100910008093C702F0E0EC55FD4F80818093BB00CF
:100920009091C7028091C602981708F479CF85E8A4
:100930008093BC0009C085EC8093BC001092EC024F
:1009400003C01092EB02D2DDFF91EF91BF91AF9106
:100950009F918F917F916F915F914F913F912F91D7
:100960000F900BBE0F900FBE0F901F90189590E048
:10097000FC013197E231F10508F04DC08827EE58AF
:10098000FF4F8F4F20C6809180008F7703C08091EA
:1009900080008F7D80938000089580918000877F04
:1009A000F9CF84B58F7702C084B58F7D84BD08955B
:1009B0008091B0008F7703C08091B0008F7D8093CD
:1009C000B0000895809190008F7707C080919000CB
:1009D0008F7D03C080919000877F80939000089561
:1009E0008091A0008F7707C08091A0008F7D03C009
:1009F0008091A000877F8093A000089580912001BE
:100A00008F7707C0809120018F7D03C080912001E6
:100A1000877F8093200108953FB7F8948091E20387
:100A20009091E303A091E403B091E50326B5A89B60
:100A300005C02F3F19F00196A11DB11D3FBFBA2F70
:100A4000A92F982F8827820F911DA11DB11DBC01D0
:100A5000CD0142E0660F771F881F991F4A95D1F795
:100A60000895009761F0FC0101900020E9F73197AB
:100A7000AF01481B590BBC0185E393E007CC80E034
:100A800090E008958F929F92AF92BF920F931F9321
:100A9000CF93DF93CDB7DEB7A1970FB6F894DEBF43
:100AA0000FBECDBF19A2423008F44AE08E010F5D9F
:100AB0001F4F842E912CA12CB12CA501940161D53E
:100AC000E62FB901CA0101501109EA3014F4E05DC2
:100AD00001C0E95CD801EC93232B242B252B69F76B
:100AE000C801BFDFA1960FB6F894DEBF0FBECDBF21
:100AF000DF91CF911F910F91BF90AF909F908F90FA
:100B00000895CF92DF92EF92FF92CF93DF936B0124
:100B10007C01E0913503F09136030190F081E02DE6
:100B20006DE285E393E01995EC0166277727CB0109
:100B30006C197D098E099F094AE0A4DF8C0F9D1F67
:100B4000DF91CF91FF90EF90DF90CF90089589CF04
:100B5000BC01990F880B990B97FDD3CF4AE092CF38
:100B60004F925F926F927F928F929F92AF92BF92BD
:100B7000CF92DF92EF92FF926B017C01B42E9B012A
:100B8000AC013FD7882319F086E992E024C0260102
:100B90003701E89477F82FEF3FEF4FE75FE7C301A6
:100BA000B2012FD781110CC02FEF3FEF4FE75FE766
:100BB000C301B20175D518161CF48AE992E00BC086
:100BC0002FEF3FEF4FE75FE4C701B601B3D618162A
:100BD0007CF48EE992E0FF90EF90DF90CF90BF9091
:100BE000AF909F908F907F906F905F904F9039CF94
:100BF0002FEF3FEF4FE75FECC701B60151D587FDFF
:100C0000E8CF20E030E0A901C701B60149D587FF50
:100C100011C0E0913503F09136030190F081E02D91
:100C20006DE285E393E019954C01F7FAF094F7F83B
:100C3000F09402C0812C912CA12C60E070E080E047
:100C40009FE3AB1439F020E030E040E251E42CD5D2
:100C5000A394F7CF9B01AC01C701B601BDD42B0112
:100C60003C018AD56B017C01B3D59B01AC01C3016A
:100C7000B201B1D42B013C014AE0C701B60102DF49
:100C80007C01E80CF91CBB2029F082EA92E0E9DE45
:100C9000E80EF91EDB2CDD20F9F020E030E040E228
:100CA00051E4C301B2014AD62B013C0165D54B0189
:100CB000A12CB12C4AE0C501B401E4DEE80EF91E16
:100CC000C501B40185D59B01AC01C301B20183D438
:100CD0002B013C01DA94DFCFC701FF90EF90DF904A
:100CE000CF90BF90AF909F908F907F906F905F90CC
:100CF0004F9008951F93CF93DF93282F30E0F90191
:100D0000EE51FE4F8491F901E456FE4FD491F90162
:100D1000EA5AFE4FC491CC23C1F0162F811127DE71
:100D2000EC2FF0E0EE0FFF1FEE5DFE4FA591B491AA
:100D30008FB7F894111105C09C91ED2FE095E92330
:100D400002C0EC91ED2BEC938FBFDF91CF911F91FF
:100D500008959F92AF92BF92CF92DF92EF92FF924F
:100D60000F931F93CF93DF9382ED93E0B3DC41E0C9
:100D70006FEB82ED93E071DC0DE213E0C12CD12C1E
:100D80007601C394C0E0D0E0A12C61E08091D20351
:100D9000B1DF60E08091D203ADDF2091D30330E07A
:100DA000F901EE51FE4F8491F901E456FE4F949003
:100DB000F901EA5AFE4FB490BB2009F496C08111A4
:100DC000D6DDEB2DF0E0EE0FFF1FE45CFE4FA591AA
:100DD000B491EC919E2209F488C0D701C6010C2E73
:100DE00004C0880F991FAA1FBB1F0A94D2F7A82A14
:100DF0002196C830D10509F0C8CFF801A1928F0122
:100E0000F3E005331F0709F0BDCF82ED93E059DC15
:100E100080912D03982F9695969596959E70292FE3
:100E2000220F220F920F8F70890F8093D50380912C
:100E30002E03982F9695969596959E70292F220FA2
:100E4000220F920F8F70890F8093D60380912F030A
:100E5000982F9695969596959670292F220F220F8A
:100E6000920F8F70890F8093D70380913203877020
:100E70008093D80380913003982F969596959695F8
:100E80009670292F220F220F920F8F70890F809357
:100E9000D9038091310384FB992790F9990F292F69
:100EA000220F220F920F8F70890F8093DA038091A7
:100EB0003303282F22952F708F7090E03AE0239F04
:100EC000800D911D11248053984F9093DC038093E3
:100ED000DB03DF91CF911F910F91FF90EF90DF9097
:100EE000CF90BF90AF909F900895D701C6010C2E70
:100EF00004C0880F991FAA1FBB1F0A94D2F78095C0
:100F0000A82276CFCF93DF9390E0FC01E456FE4F0A
:100F10002491FC01EA5AFE4F8491882361F190E00C
:100F2000880F991FFC01E85FFE4FC591D491FC0129
:100F3000EE5DFE4FA591B491611109C09FB7F89481
:100F40008881209582238883EC912E230BC0623008
:100F500061F49FB7F8943881822F8095832388832A
:100F6000EC912E2B2C939FBF06C08FB7F894E8818D
:100F70002E2B28838FBFDF91CF9108958F929F9260
:100F8000AF92BF92CF92DF92EF92FF926B017C0102
:100F900043DD4B015C01C114D104E104F104E9F02B
:100FA0003BDDDC01CB0188199909AA09BB09883E00
:100FB0009340A105B10578F321E0C21AD108E108F8
:100FC000F10888EE880E83E0981EA11CB11CC114A4
:100FD000D104E104F10421F7DECFFF90EF90DF9020
:100FE000CF90BF90AF909F908F9008951F920F92D7
:100FF0000FB60F9211242F933F938F939F93AF932C
:10100000BF938091DE039091DF03A091E003B09144
:10101000E1033091DD0323E0230F2D3720F4019607
:10102000A11DB11D05C026E8230F0296A11DB11D0B
:101030002093DD038093DE039093DF03A093E0030E
:10104000B093E1038091E2039091E303A091E40364
:10105000B091E5030196A11DB11D8093E203909329
:10106000E303A093E403B093E503BF91AF919F9195
:101070008F913F912F910F900FBE0F901F90189559
:10108000CF93DF9300D01F92CDB7DEB7789484B5AD
:10109000826084BD84B5816084BD85B5826085BD74
:1010A00085B5816085BD80916E00816080936E0002
:1010B00010928100809181008260809381008091F4
:1010C00081008160809381008091800081608093A5
:1010D00080008091B10084608093B1008091B00065
:1010E00081608093B0008091910082608093910034
:1010F0008091910081608093910080919000816047
:10110000809390008091A10082608093A1008091E3
:10111000A10081608093A1008091A00081608093F4
:10112000A0008091210182608093210180912101A2
:101130008160809321018091200181608093200152
:1011400080917A00846080937A0080917A00826036
:1011500080937A0080917A00816080937A008091F8
:101160007A00806880937A001092C100E091450374
:10117000F091460382E08083E0914103F0914203C5
:101180001082E0914303F09144038FEC808310922E
:101190004D03E0914903F0914A0386E08083E0919A
:1011A0004703F0914803808180618083E091470389
:1011B000F0914803808188608083E0914703F0913B
:1011C0004803808180688083E0914703F091480361
:1011D00080818F7D808361E089E094DE60E089E03A
:1011E00089DD9AE0692E92E0792E20E0E22E22E05D
:1011F000F22E08E113E0D3016D917D913D01F701DD
:10120000C190D1907F01072E000C880B990BE2D280
:101210004B015C01B601DD0C880B990BDBD220E0A1
:1012200030E040E752E440D29B01AC01C501B4017B
:10123000D3D1D8016D937D938D939D938D01B4E1AE
:101240006B16B2E07B06B9F664E670E080E090E0F1
:1012500095DE7FDD8091DB039091DC03813E97403A
:10126000CCF588E0EDE2F3E0DF011D928A95E9F725
:1012700080912F03806380932F0380913003807FC0
:1012800086608093300380913103807F85608093F6
:10129000310380913203887F82608093320387E13B
:1012A0008093330382ED93E015DA40E06EEB82ED3C
:1012B00093E0D3D90DE213E0F80161918F0140E092
:1012C00082ED93E0CAD9F3E005331F07A9F782ED59
:1012D00093E0F7D93EDD80912C0390E039DC88E47F
:1012E00092E035DC6091D70370E080E090E04AE066
:1012F000C9DB83E592E02BDC6091D60370E080E0EF
:1013000090E04AE0BFDB83E592E021DC6091D50309
:1013100070E080E090E04AE0B5DB85E592E017DC24
:101320008091DB039091DC0313DC6091DA0370E0C1
:1013300080E090E04AE0A6DB6091D90370E080E0B5
:1013400090E04AE09FDB8EE592E08BDB6091D70373
:1013500070E080E090E03ED26B017C018091D6038A
:10136000682F70E080E090E033D220E030E040E78A
:1013700052E49AD19B01AC01C701B6012DD16B019A
:101380007C0181E692E0E3DB42E0C701B601E8DBE5
:101390008EE592E066DB24E132E03A83298383E143
:1013A00093E09C838B8388E1282E83E0382E00E035
:1013B00010E08AE692E0CBDBC801CADB82E792E06C
:1013C000C6DBD1016D917D918D919C9142E0C8DB8E
:1013D00086E792E0BCDBE981FA814190519061900F
:1013E0007190FA83E983D1012D913D914D915C91EA
:1013F000C301B201F1D042E0B3DBF10181909190E1
:10140000A190B1901F01A5019401C701B60192D22C
:1014100087FD0EC0A3019201C501B401DDD09B017F
:10142000AC01BB24B394C701B6013AD118160CF431
:10143000B12CAB81BC81BC9281E892E088DBC80111
:1014400087DB88E892E083DBEB81FC81608170E0E0
:1014500080E090E04AE016DB8EE592E002DB8091CE
:101460002C03811103C0AB81BC818C9180932C0330
:101470000F5F1F4FEB81FC813196FC83EB830530BE
:10148000110509F096CF882361F060E089E032DC35
:101490008DE892E0E6DA8EE592E0E3DA10922C0332
:1014A00009C061E089E026DC82E992E0DADA8EE5C3
:1014B00092E0D7DA60E177E280E090E05FDD0E94C1
:1014C000300208CFE5E3F3E01382128288EE93E066
:1014D000A0E0B0E084839583A683B7832CE232E05A
:1014E0003183208325EC30E03587248724EC30E0FD
:1014F0003787268720EC30E0318B208B21EC30E0E1
:10150000338B228B22EC30E0358B248B26EC30E0C1
:10151000378B268B118E128E138E148EE6EEF3E02F
:101520001382128284839583A683B7838CE392E02F
:1015300091838083E2EDF3E088E0808387E081831C
:1015400086E08283CF01C6D840E06EE882ED93E06A
:1015500084D840E060E082ED93E07FD882ED93E0B4
:10156000B0D882ED93E0B6D840E060E982ED93E038
:1015700074D840E060E082ED93E06FD882ED93E0B4
:10158000A0C8A1E21A2EAA1BBB1BFD010DC0AA1FF9
:10159000BB1FEE1FFF1FA217B307E407F50720F0DC
:1015A000A21BB30BE40BF50B661F771F881F991F57
:1015B0001A9469F760957095809590959B01AC01A0
:1015C000BD01CF010895EE0FFF1F881F8BBF07904D
:1015D000F691E02D19945058BB27AA270ED070C160
:1015E00061D130F066D120F031F49F3F11F41EF448
:1015F00056C10EF4E095E7FB4CC1E92F72D180F3A0
:10160000BA17620773078407950718F071F49EF5FF
:101610008AC10EF4E0950B2EBA2FA02D0B01B90153
:1016200090010C01CA01A0011124FF27591B99F058
:10163000593F50F4503E68F11A16F040A22F232F64
:10164000342F4427585FF3CF469537952795A795B4
:10165000F0405395C9F77EF41F16BA0B620B730B5B
:10166000840BBAF09150A1F0FF0FBB1F661F771FCC
:10167000881FC2F70EC0BA0F621F731F841F48F481
:10168000879577956795B795F7959E3F08F0B3CF07
:101690009395880F08F09927EE0F979587950895F1
:1016A000D4D008F481E008950CD00AC102D140F0F2
:1016B000F9D030F021F45F3F19F0EBC0511134C183
:1016C000EEC00FD198F39923C9F35523B1F3951BBD
:1016D000550BBB27AA2762177307840738F09F5F53
:1016E0005F4F220F331F441FAA1FA9F333D00E2EC2
:1016F0003AF0E0E830D091505040E695001CCAF72F
:1017000029D0FE2F27D0660F771F881FBB1F2617F3
:1017100037074807AB07B0E809F0BB0B802DBF01C6
:10172000FF2793585F4F2AF09E3F510568F0B1C0E4
:10173000FBC05F3FECF3983EDCF3869577956795A9
:10174000B795F7959F5FC9F7880F911D9695879577
:1017500097F90895E1E0660F771F881FBB1F621796
:1017600073078407BA0720F0621B730B840BBA0B54
:10177000EE1F88F7E0950895BCD088F09F5790F051
:10178000B92F9927B751A0F0D1F0660F771F881FA6
:10179000991F1AF0BA95C9F712C0B13081F0C3D0C1
:1017A000B1E00895C0C0672F782F8827B85F39F05F
:1017B000B93FCCF3869577956795B395D9F73EF405
:1017C00090958095709561957F4F8F4F9F4F0895AD
:1017D000E89409C097FB3EF49095809570956195CB
:1017E0007F4F8F4F9F4F9923A9F0F92F96E9BB2781
:1017F0009395F695879577956795B795F111F8CFFD
:10180000FAF4BB0F11F460FF1BC06F5F7F4F8F4F67
:101810009F4F16C0882311F096E911C0772321F05D
:101820009EE8872F762F05C0662371F096E8862FF5
:1018300070E060E02AF09A95660F771F881FDAF74C
:10184000880F9695879597F90895990F0008550F79
:10185000AA0BE0E8FEEF16161706E807F907C0F036
:1018600012161306E407F50798F0621B730B840B3E
:10187000950B39F40A2661F0232B242B252B21F418
:1018800008950A2609F4A140A6958FEF811D811DB8
:10189000089597F99F6780E870E060E008959FEFF2
:1018A00080EC089500240A941616170618060906F7
:1018B000089500240A9412161306140605060895C6
:1018C000092E0394000C11F4882352F0BB0F40F44E
:1018D000BF2B11F460FF04C06F5F7F4F8F4F9F4F8E
:1018E000089557FD9058440F551F59F05F3F71F010
:1018F0004795880F97FB991F61F09F3F79F0879577
:101900000895121613061406551FF2CF4695F1DFFF
:1019100008C0161617061806991FF1CF869571058F
:10192000610508940895E894BB2766277727CB01C3
:1019300097F908958ADF08F48FEF08950BD0C0CF90
:10194000B1DF28F0B6DF18F0952309F0A2CFA7CFBA
:101950001124EACFC6DFA0F3959FD1F3950F50E095
:10196000551F629FF001729FBB27F00DB11D639F51
:10197000AA27F00DB11DAA1F649F6627B00DA11DF7
:10198000661F829F2227B00DA11D621F739FB00D9D
:10199000A11D621F839FA00D611D221F749F33270D
:1019A000A00D611D231F849F600D211D822F762FA6
:1019B0006A2F11249F5750408AF0E1F088234AF0A3
:1019C000EE0FFF1FBB1F661F771F881F91505040EF
:1019D000A9F79E3F510570F05CCFA6CF5F3FECF3B7
:1019E000983EDCF3869577956795B795F795E795DB
:1019F0009F5FC1F7FE2B880F911D9695879597F9EC
:101A0000089523DF880B990B089581E090E0F89406
:061A100000C0F894FFCFB6
:101A160000000000000000000000000004000A00B2
:101A26000F0012000000803F0000803F0000803F52
:101A36000000803F0000803F00000000C901460111
:101A46009301710185010F0200000000BC02A8028B
:101A56006F026C02690268020A52656C6F67696FF1
:101A66003A09003A000909446174613A09000D0A0D
:101A76000041676F72613A090900496E69636961DD
:101A86006C003A202000090966696E616C3A090902
:101A960000090952656761003A200909004849476B
:101AA60048004C4F57006E616E00696E66006F7697
:041AB60066002E0098
:00000001FF
